:020000040800F2
:1000000098AA0020990200087726000873260008A5
:1000100075260008D3250008ED2A0008000000001E
:10002000000000000000000000000000D1270008D0
:10003000D525000800000000F5260008A9280008C2
:10004000B3020008B3020008B3020008B3020008BC
:10005000B3020008B3020008B3020008B3020008AC
:10006000B3020008B3020008B3020008B30200089C
:10007000B3020008B3020008B3020008B30200088C
:10008000B3020008B3020008B3020008B30200087C
:10009000B3020008B3020008B3020008B30200086C
:1000A000B3020008B3020008B3020008B30200085C
:1000B000B3020008B3020008B3020008B30200084C
:1000C000B3020008B3020008B3020008B30200083C
:1000D000B302000809290008B3020008B3020008AF
:1000E000B3020008B3020008B3020008B30200081C
:1000F000B3020008B3020008B3020008B30200080C
:10010000B3020008B3020008B3020008B3020008FB
:10011000B3020008B3020008B3020008B3020008EB
:10012000B3020008B3020008B3020008B3020008DB
:10013000B3020008B3020008B3020008B3020008CB
:10014000B3020008B3020008B3020008B3020008BB
:10015000B3020008B3020008B3020008B3020008AB
:10016000B3020008B3020008B3020008B30200089B
:10017000B3020008B3020008B3020008B30200088B
:10018000B3020008B302000800F002F800F075F8AE
:100190000AA090E8000C82448344AAF10107DA45E2
:1001A00001D100F06AF8AFF2090EBAE80F0013F0BF
:1001B000010F18BFFB1A43F0010318477C630200CC
:1001C0009C6302000A444FF0000C10F8013B13F04E
:1001D000070408BF10F8014B1D1108BF10F8015BA0
:1001E000641E05D010F8016B641E01F8016BF9D193
:1001F00013F0080F1EBF10F8014BAD1C0C1B09D1EA
:100200006D1E58BF01F801CBFAD505E014F8016B5B
:1002100001F8016B6D1EF9D59142D6D370470000ED
:100220000023002400250026103A28BF78C1FBD8FF
:10023000520728BF30C148BF0B607047672909F0DB
:100240000D85752900F09280732900F084850020C7
:1002500070471FB509F0C7FC00F022FE0400002023
:10026000002109F0FBF9401C60600020002109F02A
:100270000BFAE0601FBD10B510BD00F03FFF114646
:10028000FFF7E7FF06F0E4FE01F0B0F903B4FFF773
:10029000F2FF03BC03F0C3FC09488047094800474C
:1002A000FEE7FEE7FEE7FEE7FEE7FEE7FEE7FEE726
:1002B000FEE7FEE704480549054A064B7047000083
:1002C000AD280008890100089888002098AA00201D
:1002D000988A0020988A00207047000000487047E4
:1002E000388800200FB41CB50C0007AA009001D07C
:1002F0002044401E074B7B4469460190069800F05D
:10030000F8FC002C03D06946002000F005FD1CBC61
:100310005DF814FB290A000070B50C460546012A59
:1003200005D02878800600D5EA69002302E0012381
:1003300005E05B1C934202D2E05C0028F9D1A86979
:10034000E618C01AA861286A184428622846AFF344
:10035000008004E0D5E9012114F8010B9047B44274
:10036000F8D32846AFF3008070BD00002DE9F041BE
:100370000646002410687529314616A510D0AFF343
:100380000080002802DA404213A507E031688A079E
:1003900001D512A502E0490704D511A5012401E009
:1003A000AFF3008000210A2206F1240709E0B0FB28
:1003B000F2FCB0FBF2F302FB1C003030785418461C
:1003C000491C0028F3D123462A463046BDE8F041B7
:1003D00000F023BA000000002D0000002B000000F8
:1003E000200000002DE9F0474FF0000A894604463E
:1003F000C0F820A02046E1688847002876D025284C
:1004000006D0D4E901219047206A401C2062F1E720
:10041000E168204600268847C4F81CA0054600274E
:10042000C4F818A02A2D09D0284603F0DDF938B306
:1004300004EB8708303DC8F8185019E059F8041B40
:10044000204604EB87029161E1688847012F054649
:1004500018D1E069002820DA26F020061DE0D8F83F
:10046000180000EB800005EB40003038C8F8180099
:100470002046E1688847054603F0B6F90028EED12A
:10048000012F0AD02E2D08D12046E16888477F1C15
:100490000546022F46F02006C4DBA069002803DAD7
:1004A000404246F00106A061F00701D026F0100698
:1004B0006C2D0AD0682D08D04C2D39D06A2D35D03E
:1004C000742D35D07A2D33D016E0E1682F462046C2
:1004D0008847B84205460AD16C2F27D04FF4806078
:1004E000E168064320468847054605E027E06C2F73
:1004F0001AD04FF4807006430DB3A5F141001928BE
:1005000002D8203546F400664A4629462046266031
:100510004E46FFF793FE80B101280BD0F61D26F062
:10052000070000F1080965E74020E4E78020D7E7ED
:100530000020D5E706F104095CE7284661E7206A58
:10054000BDE8F0872DE9F05F93460F4680460446EC
:100550000026FFF7C3FED0F80090824614F8015B36
:100560002DB100F047F90068405DC007F6D12B2D92
:1005700002D02D2D1AD0641E0021CAF800105A4650
:100580003946204600F0EBFB014627B13868A0420F
:1005900001D1C7F80080DAF80000022809D0CAF8B3
:1005A0000090700505D54842BDE8F09F46F480668E
:1005B000E2E70846F8E7401ECAB210F8011F8A4277
:1005C00002D00029F9D10020704740EA010310B59C
:1005D0009B070FD1042A0DD310C808C9121F9C42D3
:1005E000F8D020BA19BA884201D9012010BD4FF0C5
:1005F000FF3010BD1AB1D30703D0521C07E0002012
:1006000010BD10F8013B11F8014B1B1B07D110F86E
:10061000013B11F8014B1B1B01D1921EF1D1184671
:1006200010BD032A40F2308010F0030C00F015805A
:1006300011F8013BBCF1020F624498BF11F801CBE5
:1006400000F8013B38BF11F8013BA2F1040298BF4A
:1006500000F801CB38BF00F8013B11F0030300F0B4
:100660002580083AC0F0088051F8043B083A51F858
:1006700004CBA0E80810F5E7121D5CBF51F8043B5D
:1006800040F8043BAFF30080D20724BF11F8013BD0
:1006900011F801CB48BF11F8012B24BF00F8013B32
:1006A00000F801CB48BF00F8012B704710B5203A85
:1006B000C0F00B80B1E81850203AA0E81850B1E81B
:1006C0001850A0E81850BFF4F5AF5FEA027C24BFD1
:1006D000B1E81850A0E8185044BF18C918C0BDE8C8
:1006E00010405FEA827C24BF51F8043B40F8043B91
:1006F00008BF7047D20728BF31F8023B48BF11F846
:10070000012B28BF20F8023B48BF00F8012B70479F
:100710004FF0000200B5134694469646203922BF9A
:10072000A0E80C50A0E80C50B1F12001BFF4F7AFE5
:10073000090728BFA0E80C5048BF0CC05DF804EBC7
:10074000890028BF40F8042B08BF704748BF20F835
:10075000022B11F0804F18BF00F8012B70470000EA
:100760004FF0013C50F8042B51F8043B9A4221D140
:10077000A2EB0C03934313EACC1317D150F8042BCC
:1007800051F8043B9A4215D1A2EB0C03934313EAB0
:10079000CC130BD150F8042B51F8043B9A4209D1E9
:1007A000A2EB0C03934313EACC13DBD04FF0000011
:1007B000704700BFD01A01BAB1FA81F101F01801F7
:1007C00022FA01F0CB40C1F12001DBB2C0B2C01A65
:1007D0002CFA01F3D11A914311EAC311E6D1704703
:1007E0007047704770470000004870473888002005
:1007F0007047000010B500F053FB001D10BD00BF96
:100800005D8E000010B5FFF769FD006810BD10B5E2
:100810000446FFF763FD046010BD2DE9F0470D4667
:1008200099469246044600F124080168880604D5DA
:10083000E06921F01001216000E00120A84201DD03
:10084000471B00E00027A1697A1902EB0900081A8A
:10085000A0612078C00602D42046AFF300800026B5
:1008600008E0D4E901211AF806009047206A401CEC
:10087000761C20624E45F4DB2078C0060AD520465F
:10088000AFF3008006E0D4E9012130209047206AD0
:10089000401C2062381EA7F10107F4DC07E0D4E910
:1008A000012118F805009047206A401C2062281E8C
:1008B000A5F10105F3DC2046AFF3008020780006A7
:1008C00002D50220BDE8F0870120FBE770472DE943
:1008D000FF4F0C461E464FF0FF378BB0D2E90001A8
:1008E000DDF860800A908A46C1F30A5505B93D4695
:1008F000002108464FF00000BAF1000F00F440005C
:1009000005DA00EB80004FF4400101EA50004FEAA5
:100910009059B9F1010F00DDB9460A9850EA4A0032
:100920000ED044F61050A5F2FF3545432F14B8F110
:10093000000F1ED07542291E1EDDC9F100021CE009
:10094000B8F1010F4FF0000001D0302103E0F24375
:1009500005E02154401CB042FBDB30460022002160
:1009600021540B99C1F80880C1E900200FB0BDE8FF
:10097000F08FBD1B6D1CDEE74A4600DA694206A80F
:1009800000F04EFB06AB93E8070003AB83E80700DB
:1009900050460A9901F00FFA8DE80700A0F50050C3
:1009A0001F3800900398002D09DD42F21F014A46CE
:1009B000084403A90390684601F099FC08E0A0F5FB
:1009C00000504A461F3803A90390684601F0B7FC5F
:1009D0008DE807000004000C03D04FF0FF30410801
:1009E00000E01046B8F1000F03D000220092154637
:1009F0001EE0751E05D400F057FA303262556D1EA8
:100A0000F9D5B3460122084302D000227F1C04E03E
:100A10002078302801D100227F1E002A099786D035
:100A20001DE0112D07DA00F03FFA303262556D1CDF
:100A300050EA0102F5D1084302D00098C8B10EE097
:100A40000021681E05E0235C625C63542254401E52
:100A5000491C8142F7DBAB46A81B401E09900020D1
:100A600004F80B000B98099AC0F80880C0E9002B25
:100A70007CE711264FF0000859E72DE9F04F884632
:100A80000446D21D22F0070191B0D1E90001CDE961
:100A90000A0102F02CF802460B98C00F01D02D205D
:100AA00007E02068810701D52B2002E0202101EA20
:100AB000C000032A099001D0072A05DB03464146FE
:100AC000204600F03FFA0BE12078800601D5E0696E
:100AD00000E00620B8F1650F814606D0B8F1660F38
:100AE00018D0B8F1670F70D131E00020B9F1110FC3
:100AF000009001DB112301E009F101030AAA01A919
:100B00000CA8FFF7E4FEDDE90C70002609F10105F1
:100B1000834647E001204B4600904FF000470AAA69
:100B200001A90CA8FFF7D3FEDDE90DB00C995D46D5
:100B3000002610B909F101000D18B9EB050003D426
:100B4000C0F1FF3609F10105A5EB09002BE0B9F171
:100B5000010F01DA4FF001090020B9F1110F0090E7
:100B6000484601DD112300E003460AAA01A90CA8AA
:100B7000FFF7ADFEDDE90C704D4600268346207878
:100B800000070AD4AB4500DA5D4601A8012D04DD5B
:100B9000411911F8011C302907D04F4502DA17F12D
:100BA000040F04DA012082460FE06D1EEEE7002FED
:100BB00002DCED1B3E4403E0781CA84200DD7D1CF6
:100BC000B81B00F1010A4FF000472078000703D45A
:100BD000AA4501DB4FF0FF3A0021B7F1004F0DF1BC
:100BE00043088DF8431024D002202B23002F01DA74
:100BF0007F422D230A21021EA0F1010000DC5FB11B
:100C000097FBF1FC97FBF1F201FB1C7C17460CF102
:100C1000300C08F801CDEEE7A8F10100037021883F
:100C2000090501D5452100E06521A0F1010800F882
:100C3000011C09980FA9A1EB0807FF1D00B10120B5
:100C4000411901EBEA70A1693844081A401EA061FD
:100C50002078C00602D42046AFF30080099828B15E
:100C6000D4E901219047206A401C20622078C00608
:100C700022D52046AFF300801EE0002E04DBB345F2
:100C800002DD01A8805D00E03020D4E90121904719
:100C9000206A401C2062761CAAF101005FEA000A6B
:100CA0000AD100F0FDF8C0680168405CD4E9012178
:100CB0009047206A401C2062281EA5F10105DCDC5B
:100CC00007E0D4E9012118F8010B9047206A401C85
:100CD0002062381EA7F10107F3DC2046AFF3008045
:100CE000032011B043E6000001694A1C0261087844
:100CF000704700B58FB0CDE901310021059105495C
:100D00007944CDE9031011466846FFF76BFB0FB03D
:100D100000BD0000E5FFFFFF0A6802F8010B0A6052
:100D20007047D1E900239A4202D2531C0B60107025
:100D3000704710B5436913B1AFF3008001E0FFF7CE
:100D4000EBFA012010BD127800F124010A70002294
:100D50004A700122EDE711684FF0FF32E9E72DE913
:100D6000F05F824615468B4600270AF10104B9461A
:100D70000078302801D09DB113E014F8010B012751
:100D8000782803D0582801D045B10AE00DB1102DC4
:100D900007D1002714F8010B102502E0082500E018
:100DA0000A250026B0460EE005FB080005FB06F10B
:100DB00001271FFA80F801EB1046B6F5803F00D3FB
:100DC000B94614F8010B294600F0FCF80028EBDACC
:100DD000BBF1000F05D00FB1641E00E05446CBF804
:100DE0000040B9F1000F06D0FFF778FA0221016048
:100DF000C81EBDE8F09F48EA0640FAE70FB400239A
:100E000000B589B00CA900910B99CB60214B7B44B4
:100E10000693214B7B44079304236FF00042CDE9F6
:100E200001321E4A7A446B4608920246002008F0BE
:100E300077FF09B05DF814FB70B506464FF0FF3040
:100E400015460C46324686B00091CDE9010169464F
:100E50000020049004A8FFF7D1FF0246049821184F
:100E600025B108B1084600E0204628600498002813
:100E70000DD0002A02DD0098884208D03246081BB7
:100E800069460094CDE9010404A8FFF7B7FF06B056
:100E900070BD0000CF010000E70100000B01000061
:100EA000004870475888002030B5B0F10A024FEA78
:100EB000900E71F100034EEA817EB0EB0E0061EB03
:100EC00091014FEA101E4EEA017E10EB0E0041EB3D
:100ED00011114FEA102E4EEA016E10EB0E0041EB9D
:100EE00011214FEA104E4EEA014E10EB0E0041EB7D
:100EF0001141401841F100014FEAD00040EA417031
:100F00004FEAD10110EB80054FEA810444EA907466
:100F100044EB01046D1944EB0404521BA3414FF050
:100F2000000348BF0A3200D530BD401C41F100012A
:100F300030BD10B50446FFF75DFC0068005D00F0B1
:100F4000010010BD2DE9F0411F460446032601684B
:100F5000072A01F4006004DB08B116A505E016A518
:100F600003E008B115A500E015A521F010002060F0
:100F7000A069C01EA0610FB1401EA0612046AFF362
:100F800000804FB1D4E9012138469047206A401CC7
:100F90002062C01C206206E0206AFAE7D4E9012141
:100FA00015F8010B9047761EF8D22046AFF300806B
:100FB000BDE8F0814E414E006E616E00494E460024
:100FC000696E66003A2800D2303820F02002412AAB
:100FD00001D3A2F13700884201D34FF0FF307047B0
:100FE000426842B1016811F8013B23B1521EC0E9C9
:100FF0000012184670470121C160881E7047426880
:101000005AB1C368016843B983688B4205D0491E51
:10101000521CC0E90012002070474FF0FF307047AB
:101020002DE9F047814616468AB0334878440DC80A
:101030008DE80D0030487844801C03AC0DC884E86E
:101040000D0041F69B300844372190FBF1F290FBF4
:10105000F1F5A5F1800501FB12041B3C02D56442A9
:10106000012000E00020DFF890A080460027FA442D
:10107000AAF1BE0A0DE0E00709D03246684607EB48
:1010800047010AEB810101F05AF98DE8070064106D
:101090007F1C002CEFD1184F7F44AC3F18E0E807CD
:1010A00014D007EB04100DF1180A90E80E008AE83E
:1010B0000E00C068F04201D198190890324606A986
:1010C00003A801F03CF903AB83E807006D10641C32
:1010D000002DE4D132466946B8F1000F03A802D0D2
:1010E00001F005F901E001F02AF9C9E90001C9F8A8
:1010F00008200AB0BDE8F0878C5302007546FFF760
:1011000073FBAE4605006946534620F0070085464E
:1011100018B020B5FFF7CEF8BDE820404FF000062C
:101120004FF000074FF000084FF0000B21F00701CF
:10113000AC46ACE8C009ACE8C009ACE8C009ACE812
:10114000C0098D46704700002DE9FF4F064689B063
:101150000878FF2806D0491C2D2805D000244FF020
:10116000000908E000200CE00124F8E709EB8903FE
:10117000491C00EB43090878FF28F7D114B1C9F1E5
:1011800000008146107800252C46AA4629462D28C5
:1011900001D02B2804D1521C2D2813D000208246C8
:1011A0008B461078FF280FD04FF0000C0A21521CFC
:1011B000A5FB017804FB018105FB0C11C5194BEB64
:1011C0000104EEE70120EAE7002108464FF00000A5
:1011D000BAF1000F02D000EB80004008C0F3815844
:1011E000B8F1010F01DD4FF0FF380C9809EB000753
:1011F00055EA040009D04FF0020917F5FA7F0BDA1F
:101200004FEACA70C6E900B012E04FEACA70C6E9F8
:1012100000B00DB0BDE8F08FB7F5FA7F0DDDF048F6
:101220007844D0E90010C6E9001040EACA70706046
:10123000FFF754F8C0F80090EBE7391E02DAC8F166
:10124000000200E0424600DA794206A8FFF7E8FE15
:1012500006AB93E8070003AB83E8070044F23E00C7
:101260005BEA04010090584604D144F21E012C466A
:101270005D460091210C0904014306D10099240424
:1012800044EA15442D041039009104F07F410143D4
:1012900006D10099240244EA15642D020839009110
:1012A00004F07041014306D10099240144EA157409
:1012B0002D01091F009104F04041014306D100991E
:1012C000A40044EA9574AD00891E009104F0004129
:1012D000084304D100986D196441401E00904246B5
:1012E0006846002FCDE9014503A902DD01F03BF876
:1012F00001E001F010F8BAF1000F04460D4601D0EC
:1013000084F0004440F2FF7724F00040284303D0EB
:10131000C4F30A50B84212D1FEF7E0FFC0F80090C3
:10132000C4F30A50B8420AD1AE487844D0E900105C
:10133000C6E9001004F000410843706069E7C6E99F
:10134000005466E72DE9FF4F1F464FF0000A4FF0AB
:10135000FF38454691B0D7E90146CDF83CA0FFF7EC
:101360009FFDC0680168405C1090B96912986D1CBF
:101370008847396A814688470028F6D1B9F1FF3F8E
:101380000AD0002E24F4D06411DDB9F12B0F08D05F
:10139000B9F12D0F0BD102E0404615B03AE744F405
:1013A0008064B96912986D1C8847761E8146600575
:1013B00004A901D52D2000E02B20002E01F1010B06
:1013C0000DF130088DF810003FDDB9F1690F08D03C
:1013D000B9F1490F05D0B9F16E0F02D0B9F14E0F36
:1013E0001CD13B4601A8009580E85002DDE91212AD
:1013F0006FF0020008F098FCC11CCED10EE0B96974
:1014000012986D1C884781461398761E44F4007428
:1014100005600F98401C002E0F9016DDB9F1300FBB
:10142000EDD0B9F1780F02D0B9F1580F0DD10F9866
:1014300001280AD13B46CDE90054DDE91212001F14
:10144000029608F06FFCC11CA7D1109989453ED1C6
:1014500044F0800406E01399681CAAF1010A44F4E0
:1014600000740860B9696D1C1298761E8847302890
:101470008146F0D02BE01099894505D1200603D490
:10148000761E44F0800418E0484602F0ADF908B337
:10149000761E0DF123018B4544F4007408D2A9F1A6
:1014A00030000BF8010B200607D5AAF1010003E07C
:1014B000200602D40AF101008246A00502D5139944
:1014C000681C0860B96912986D1C88478146002E17
:1014D000D1DC53E0002E51DDB9F1650F02D0B9F136
:1014E000450F4BD1A00549D5B9696D1C1298761EE0
:1014F00024F440748847002E81460CDD2B2804D04C
:10150000B9F12D0F07D144F48074B96912986D1C9C
:101510008847761E8146E00501D52D2100E02B216C
:1015200008F8011BCDF8008021E0761E0DF139018D
:10153000884544F400740CD2A9F1300010F0FF008B
:1015400088F8000002D10099884509D908F10108FE
:1015500006E0E00501D5244801E042F20F70824622
:10156000B96912986D1C8847814613980560002E52
:1015700004DD484602F038F90028D6D1F9691298FE
:101580008847FF2053468BF8000088F800000020B1
:101590000A900B9004AA0CA90AA8FFF7D5FDA00594
:1015A00002D46FF00100F8E614F0240F0AD0E0072F
:1015B00014D13868DDE90A12031D3B600068C0E9F8
:1015C00000120BE00AA9684602F01EF8E00705D1F8
:1015D0003868009A011D3960006802602846DCE620
:1015E000345302002A520200F1D8FFFF10B504461E
:1015F000AFF300802046BDE81040FEF747BE000074
:101600002DE9FF4F1F464FF03C0987B04FF00042D5
:10161000DDE9141001F10108DDF858A002EA40509C
:101620000390002005908346054604460490B9695E
:10163000461E08988847AAF1010A0290BAF1000FE5
:101640003BDD02982E2815D01021FFF7BBFC0028A7
:101650002EDB4FF0010B0599014317D0B9F1000FB4
:101660000BDB4A46C11700F0F5F905430C43A9F11D
:10167000040905E0012004900BE008B145F00105E4
:1016800001200590049820B9361D02E0049800B1AD
:10169000361FB969089808F101088847BBF1000FA7
:1016A000AAF1010A0290C9D00999C1F80080C5E7E2
:1016B0000298702808D0502806D0F9690898884701
:1016C000BBF1000F14D04FE0002002900120BBF1CD
:1016D000000F049009D0B969089808F101088847FB
:1016E000AAF10109B9F1000F07DCF96908988847E8
:1016F0006FF001000BB0BDE8F08F2B2804D02D282F
:101700000CD14FF0FF300490B969089808F1010836
:101710008847A9F10109B9F1000FE6DD411CE4D0C9
:101720000A21FFF74FFC0028DFDB029908F10108CE
:1017300001EB810100EB41000290B96908988847EC
:101740000A21FFF73FFC099AA9F10109B9F1000F3D
:10175000C2F8008001DD0028E7DAF96908988847B7
:101760000499029800FB016655EA040004D004F0D5
:101770004041090002D006E0039898E0A40044EA42
:101780009574AD00B61E04F00041080002D16D1939
:101790006441761E159810F0240F03D04FF00B090A
:1017A0005C4803E04FF028096FF07D008246564503
:1017B00007DAAAEB06018944B9F1410F01DD4FF0C8
:1017C000410901200021A9F1010200F043F902467C
:1017D00028400B462140084301D0012100E00021B0
:1017E000501E029143F1FF3128402140084301D0AF
:1017F000012000E000200299834651EA0B014FD0FE
:10180000002108464FF00000039900F4400039B170
:1018100000EB80004FF4400100EBD07001EA600063
:101820008015012802DD4FF0FF3000E013D0401C8E
:1018300036D0029860B3BBF1000F0CD14A460120AC
:10184000002100F007F928402140084301D0012081
:1018500000E00020E0B101204A46002100F0FAF843
:10186000034640190A4661412D1A8C4111D3B9F142
:10187000400F09DD159810F0240F02D0AAF13406AC
:1018800003E0AAF1170600E0761C00254FF00044A3
:1018900006E05B1E42F1FF3220EA030521EA020462
:1018A000CAF10100B04206DA1B49039808430190CF
:1018B000002000900EE0039AC4F3D321E80A0A4303
:1018C000164940EA44500A433146CDE900026846D1
:1018D00001F0F6FE159810F0240F0BD01598C007F4
:1018E00015D13868DDE90012031D3B600068C0E9CE
:1018F00000120CE002A8694601F086FE1598C007A8
:1019000005D13868029A011D3960006802604046BE
:10191000F0E6000002FCFFFF0000F07F0000F03F57
:101920002DE9FF4F92461D4685B04FF00041DDE99D
:10193000124BDDE914727F1E01EA4B50414940F021
:10194000FF4940EA0108002122F0200049280491C3
:1019500002D04E2828D04CE03BA0012607C88DE8D5
:101960000700A9690698641C88477F1E014606D4B3
:101970001DF8060018B121F0200181420BD0E96961
:1019800006988847032E34D0082E32D06FF001001D
:1019900009B0BDE8F08F761C032E01D0082EE0D1EF
:1019A000601CCAF80000DCE7A9690698641C884737
:1019B0007F1E2AD420F02000412826D1A96906984C
:1019C000641C88477F1E20D420F020004E281CD1A4
:1019D000A9690698641C88477F1E48F4002849F4CA
:1019E0008009CAF8004001D4282806D0E969069881
:1019F00088475FEACB7012D022E0A9690698641C80
:101A000088477F1E01D4002803DAE96906988847D1
:101A1000BCE72928F1D1641CCAF80040E9E71BF0B3
:101A2000240F07D028680499031D2B600068C0E9C3
:101A3000001805E02868021D2A600068C0F80090C0
:101A40002046A5E70000F07F494E46494E495459CB
:101A500000000000B2F120030AD5C2F1200301FA10
:101A600002F120FA03F300FA02F041EA03017047A1
:101A700000FA03F14FF0000070472DE9F04F86B0F7
:101A80009DF8587000910392002F059318BF012311
:101A9000109C04FB033304930F9D14BF2F460127B2
:101AA0000197BDF844305B0800F09F80DDF850B02E
:101AB000139A02EB83030293DDF848E0039F5FEA89
:101AC0009E08DDF800C057F8046B57F8043B0397F5
:101AD0001A46314622D05CF81E705CF8049B50F820
:101AE00004AB50F8045B2AFB09662AFB071125FBAF
:101AF000093325FB07225CF81E705CF8049B50F844
:101B000004AB50F8045B2AFB09662AFB071125FB8E
:101B1000093325FB0722B8F10108DCD10EF00307D9
:101B20008FB13CF91E803CF902AB30F9025B30F911
:101B3000029B0AFB056609FB0A3308FB051109FB3A
:101B40000822013FEDDCDDF84CA0159F3AF9024B6D
:101B500057F804CB5BF8045BC4F1150999EA040952
:101B600040F3C8804FEA46064FEA410156FB05C6DE
:101B700051FB05C146FA04F641FA04F13AF9024B69
:101B800057F804CB5BF8045BC4F1150999EA040922
:101B900040F399804FEA43034FEA420253FB05C3E7
:101BA00052FB05C243FA04F342FA04F206F30706B5
:101BB000DDF80490179CDDF810802670A04401F336
:101BC000070188F8001003F3070304F8093002F353
:101BD000070208F8092004EB49021792CDF84CA03F
:101BE000029C1597A2457FF467AF119B13F0010388
:101BF00054D0BDF848E0039BDDF800C019685FEAE7
:101C00009E070CEB4E040E4615D05CF81E505CF897
:101C1000048B50F804AB50F8043B2AFB08662AFBFF
:101C200005115CF81EA05CF8048B23FB086623FBFF
:101C30000A11013FE9D11EF003070BD03CF81E301A
:101C40003CF8029B30F902AB19FB0A66013F13FB1B
:101C50000A11F3DCDDF84CA0159FBAF90040D7F863
:101C600000C0DBF80050C4F1150999EA040958DDF9
:101C70004FEA46064FEA410156FB05C651FB05C136
:101C800046FA04F641FA04F106F30706179A049C93
:101C9000167001F307011155019B1A441199169B07
:101CA000109C33B10F9B04F1020003FB11001044A0
:101CB00006E0A2EB0100059A04F1020402FB040015
:101CC00006B0BDE8F08F002C42DD4FF0010909FAA3
:101CD00004F94FEAA90953FB05934FEA430343FA7A
:101CE00004F3634452FB05924FEA420242FA04F2C3
:101CF00062445BE7002C3CDD4FF0010909FA04F96E
:101D00004FEAA90956FB05964FEA460646FA04F63D
:101D1000664451FB05914FEA410141FA04F16144E7
:101D20002CE7002C36DD4FF0010909FA04F94FEADF
:101D3000A90956FB05964FEA460646FA04F666449C
:101D400051FB05914FEA410141FA04F161449BE7DF
:101D5000C4F1010903FA09F303F31F0353FB15F35D
:101D600002FA09F202F31F0252FB15F263446244C5
:101D70001CE7C4F1010906FA09F606F31F0656FB33
:101D800015F601FA09F101F31F0151FB15F1664443
:101D90006144F3E6C4F1010906FA09F606F31F06E9
:101DA00056FB15F601FA09F101F31F0151FB15F17C
:101DB0006644614468E75FEA400C08BF91F0000F99
:101DC0004FEA8C234FEAC12243EA51514FEA1C509B
:101DD00018BF00F5F0404FEA300018BF41F0004155
:101DE0005FEA6C5C00F02980BCF1FF3F08BF40F067
:101DF00080407047130C06BF12044FF0100C4FF0D8
:101E0000000C130E04BF12020CF1080C130F04BFD8
:101E100012010CF1040C930F04BF92000CF1020CA0
:101E2000D30F04BF52000CF1010C11464FF0000219
:101E3000A0F11F00A0EB0C00704711F0004F08BF8D
:101E4000704731F000413FF4D5AF0B0C06BF0904D9
:101E50004FF0100C4FF0000C0B0E04BF09020CF1F8
:101E6000080C0B0F04BF09010CF1040C8B0F04BF0D
:101E700089000CF1020CCB0F04BF49000CF1010CDE
:101E8000CCF12003A0EB0C0022FA03F302FA0CF2CF
:101E900041EA030100F10100704720F07F4C80EA25
:101EA000030023F07F47ACEB070303F57C5300F0FE
:101EB000004003F1FF032DE980494FEA154B09B4B7
:101EC0004FEA144325EA0B4E24EA03480FF2042696
:101ED00006EB132749083E785FEA320203FB0667E8
:101EE000C7F5000707FB06F64FEA54374FEAD64618
:101EF00006F1020607FB066CCCF1005C4FEA1C47BA
:101F00002CEA074C07FB06F40CFB06F504EB154620
:101F10004FEA961634BF00204FF000404FEAD13709
:101F200006FB07FC4FEA1C4C0CFB0BF7D21B03FB18
:101F30000CF761EB07010CFB0EF7B0EB074072EBFF
:101F400017420CFB08F734BFA2EB0742B2EB074283
:101F500061EB17414FEA0C444FEA910706FB07FC7F
:101F60004FEA1C4C0CFB0BF7B0EBC74072EB57323F
:101F700003FB0CF734BFA2EBC742B2EBC74261EBE5
:101F800057310CFB0EF7B0EBC70072EB57720CFB2E
:101F900008F734BFA2EBC702B2EBC70261EB57717F
:101FA000039F4FEA816141EA921104EBCC044FEAAE
:101FB000D1374FEA826206FB07FC42EA90124FEAF1
:101FC00080604FEA1C4C0CFB0BF7D21B03FB0CF799
:101FD00061EB07010CFB0EF7B0EB074072EB174209
:101FE0000CFB08F734BFA2EB0742B2EB074261EBF0
:101FF00017414FEA8C554FEA910704EB9C2406FBEE
:1020000007FC4FEA1C4C0CFB0BF7B0EBC74072EB24
:10201000573203FB0CF734BFA2EBC742B2EBC74207
:1020200061EB57310CFB0EF7B0EBC70072EB577248
:102030000CFB08F734BFA2EBC702B2EBC70261EB9F
:10204000577115EB4C254FEA816141EA92114FEA35
:1020500082624FEAD13742EA901206FB07FC44F154
:1020600000044FEA80604FEA1C4C0CFB0BF7D21BBC
:1020700003FB0CF761EB07010CFB0EF7B0EB07401D
:1020800072EB17420CFB08F734BFA2EB0742B2EB2E
:10209000074261EB174115EB1C154FEA813141EA0C
:1020A00092414FEA823242EA90424FEA80304FEA50
:1020B0000C7644F1000448EA03434EEA0B484FF023
:1020C000000EB2EB080C71EB030724BF62463946E1
:1020D0004EEB0E0E4FF0000B0018524149414BEBF6
:1020E0000B0BB2EB080C71EB03077BF1000B24BF69
:1020F000624639464EEB0E0E4FF0000B001852416F
:1021000049414BEB0B0BB2EB080C71EB03077BF176
:10211000000B24BF624639464EEB0E0E51EA020711
:1021200018BF46F0010616EB0E7655F1000254F189
:10213000000103D5BDE88901BDE80088BDE889013B
:10214000BDE80048B619524141EB0101A3F101037A
:10215000704780807F7E7D7C7B7A79787776767514
:102160007473727171706F6E6E6D6C6C6B6A6A698C
:102170006868676666656464636362616160605F26
:102180005F5E5E5D5D5C5C5B5B5A5A59595858579F
:102190005756565555555454535352525251515007
:1021A00050504F4F4F4E4E4D4D4D4C4C4C4B4B4B5A
:1021B0004A4A4A49494948484847474747464646A0
:1021C00045454544444444434343434242424241DB
:1021D0004141000046EA0646A3F570534FEA164611
:1021E00046EA42564FEAD22242EA415210B54FEA3D
:1021F000D121A3F1010300F017F820F0004000F115
:10220000010C00F0004701EB00501146BCF5006FD7
:1022100040EA070000D210BD02484FF0000140EA3A
:10222000070010BD0000F07F002B26D4770021D0DE
:102230001CB54FEA370703B44FF010004FF0100100
:102240004FF000000FBCBDE810400BF1010BBBF1DB
:10225000010F08BF5FEA170722BF12F1010211F157
:1022600001014FF0004143F1000300F0004043EA58
:1022700000007047F9D35708DAE746EA064613F13B
:10228000400F4FEA16461FDD13F1200FDFBF164344
:102290000A46002120335B42C8D0C3F1200746EA3A
:1022A000064602FA07F74FEA164646EA0706C3F162
:1022B000200722FA03F201FA07F721FA03F14FF09F
:1022C000000342EA0702B1E746EA020646EA06468A
:1022D0004FEA164646EA0106BCBF46EA0646360CF9
:1022E0004FF000034FF000024FF000019EE72DE990
:1022F000C048934630B491E8380007C831EA400C32
:1023000048BF34EA430C03D5FFF7C7FDFFF78CFF46
:10231000F0BCBDE800882DE9C048934630B491E890
:10232000380007C831EA400C48BF34EA430C03D5F3
:10233000FFF7B3FDFFF74EFFF0BCBDE800882DE9C5
:10234000C048934630B491E8380007C810F0804F79
:1023500008BF13F0804F03D100F019F8FFF764FFB6
:10236000F0BCBDE800882DE9C048934630B491E840
:10237000380007C810F0804F08BF13F0804F03D11A
:1023800000F005F8FFF726FFF0BCBDE8008820F05C
:102390007F4780EA030023F07F4C07EB0C03A3F593
:1023A0007C5300F00040A3F1FE0392F0000F00F018
:1023B000B38095F0000F00F077802DE901494FEAD6
:1023C00011404FEA144621EA004800FB06FC24EACB
:1023D000064708FB06F607FB08F800FB07F718EBB3
:1023E00006484CEB164C4FEA124B18EB07484FEAE5
:1023F00015464CEB174022EA0B4E0BFB06FC25EA78
:1024000006470EFB06F607FB0EFE0BFB07F71EEB5F
:10241000064E4CEB164C4FF000061EEB074E4CEBF5
:10242000174B18EB0B0840F1000018EB0E0B58EBA4
:10243000000840F100008F1A4FF000013CBFC94373
:10244000661B14BFB5EB040C00213CBFC943F61B4F
:102450004FEA17444EEA8E0E27EA04454FEA1C471E
:1024600004FB07622CEA074C05FB07F70CFB05F69B
:1024700004FB0CFC16EB074642EB174216EB0C462E
:1024800042EB1C421BEB060658EB0202414146EAB6
:102490009E0601D5BDE80189B619524141EB010103
:1024A000A3F10103BDE801894FEA14454FEA114742
:1024B00024EA054621EA074C05FB07F406FB07F76B
:1024C0000CFB06F105FB0CFC11EB074144EB174438
:1024D0004FEA124711EB0C4144EB1C4422EA074C33
:1024E00005FB07F206FB07F70CFB06F605FB0CFCE9
:1024F00016EB074642EB174216EB0C4642EB1C4527
:102500006A1854F1000148BF7047B619524141EBB7
:102510000101A3F10103704795F0000F37D04FEA96
:1025200011424FEA144721EA024624EA074C02FB13
:1025300007F106FB07F70CFB06F402FB0CFC14EB9F
:10254000074441EB17414FEA154714EB0C4441EBAC
:102550001C4125EA074C02FB07F506FB07F70CFBBD
:1025600006F602FB0CFC16EB074645EB174516EB8F
:102570000C4645EB1C42121951F1000148BF70474F
:10258000B619524141EB0101A3F1010370474FEA33
:1025900014454FEA114724EA054621EA074C05FB9A
:1025A00007F106FB07F70CFB06F24FF0000605FBF0
:1025B0000CFC12EB074241EB174112EB0C4251EBC2
:1025C0001C4148BF7047921841EB0101A3F1010380
:1025D0007047FEE770472DE9F041002201274FF0D8
:1025E000030C07FA02F50B682B40AB422CD10668AE
:1025F00053000CFA03F4A64306600E79D0F800806D
:102600009E4046EA080606600E79012E01D0022E91
:1026100012D18668A64386604E79D0F808809E4025
:1026200046EA080686604668AE43466045688E798D
:102630009640B6B235434560C568A543C560CC79C0
:102640009C40C3681C43C460521C102AC9D3BDE817
:10265000F08110B54B07DB0E9A40C90800EB8100F2
:10266000016A0F249C40A1430162016A1143016287
:1026700010BDFEE7FEE7704730B50F23C278012595
:102680000178002A1FD0154A126802F4E062C2F5F0
:10269000E062C2F30722C2F10404D3404278A240B0
:1026A00084781C401443220101F1E02181F80024C8
:1026B000007800F01F018D404009800000F1E0200B
:1026C000C0F8005130BD01F01F008540480980006E
:1026D00000F1E020C0F8805130BD00000CED00E0BA
:1026E0000249084302490860704700000000FA05EB
:1026F0000CED00E070470000054A002903D0116886
:1027000001431160704711688143116070470000F8
:1027100030380240054A002903D011680143116096
:1027200070471168814311607047000044380240CF
:1027300070B5244B196801F00C01234C00291ED000
:10274000661004291DD008291DD00460196801F005
:10275000F00109091D4A545C0168E14041601C68B0
:1027600004F4E054A40A145D21FA04F484601B68A4
:1027700003F460435B0BD25CD140C16070BD046068
:10278000E4E70660E2E70F4A121F1168C1F38055C3
:10279000116801F03F0135B1B6FBF1F11468C4F3E3
:1027A0008814614305E0B4FBF1F11468C4F38814A4
:1027B00061431268C2F30142521C5200B1FBF2F1B4
:1027C0000160C3E7083802400024F4001400002030
:1027D000704700000CB5002201920092274908685A
:1027E00040F4803008604FF4A043086800F40030E3
:1027F00000900198401C0190009810B901989842EF
:10280000F3D10868800302D50120009000E0009217
:102810000098012831D119484030026842F08052B6
:1028200002601748026842F44042026013480830D0
:1028300002680260026842F400420260026842F4E8
:10284000A0520260021F0F4B13600A6842F08072B0
:102850000A600A689201FCD50B4A40F205711160CA
:10286000016821F003010160016841F0020101608B
:102870000168C1F381010229FAD10CBD0038024080
:102880000070004008544007003C02404FF0E02137
:10289000042804D0086920F0040008617047086922
:1028A00040F004000861704702F044BB10B51248C4
:1028B000016841F4700101601048016841F00101B4
:1028C00001600E4A00210832116002680C4B1A4068
:1028D0000260031D0B4A1A60026822F48022026023
:1028E00006480C300160FFF775FF03494FF00060A8
:1028F0008039086010BD000088ED00E0003802401B
:10290000FFFFF6FE1030002470B5174C40F225553D
:102910002946204600F049F8002824D0204600F03F
:10292000DDF8C2B2114B1888000411D40D2A15D05D
:102930000A2A13D018880E49C0F30D000A541888CB
:10294000401C18801888B0F5805F01D300201880E3
:1029500029462046BDE8704000F00CB8188840F4C5
:1029600000401880F4E770BD001001403C000020DA
:102970005077002040F66A120A0A01219140C943AB
:1029800001807047002904D0818941F40051818180
:102990007047818921F400518181704702460020EF
:1029A00012880A4200D00120704770B5002440F61A
:1029B0006A12C1F3421301F01F05012606FA05F25F
:1029C000012B0CD0022B0DD0838A1340090A8E40B4
:1029D000008830400BB100B10124204670BD8389CE
:1029E0001340F3E7038A1340F0E710B540F66A138B
:1029F000C1F3421301F01F040121A140012B07D0B4
:102A0000022B07D014303AB102680A43026010BDAD
:102A10000C30F8E71030F6E702688A43026010BD18
:102A20007FB504460D46208A20F44051E8880843CB
:102A30002082A08941F20C618843A9882A89114328
:102A40006A8902431143A181A08A20F44071A889B8
:102A50000843A0826846FFF76BFE1E48844202D0FE
:102A60001D48844201D1039800E00298A18909041D
:102A700008D500EBC00101EB001029684900B0FB4C
:102A8000F1F007E000EBC00101EB001029688900BC
:102A9000B0FBF1F06422B0FBF2F109010B096FF019
:102AA00018056B4300EB8300A3891D044FF032032C
:102AB00007D503EBC000B0FBF2F000F007000843BD
:102AC00006E003EB0010B0FBF2F000F00F0008434B
:102AD00020817FBD00100140001401408088C0F3B8
:102AE00008007047C1F3080181807047FEE703B416
:102AF00001984100009850EAC12018BF04204A0DF7
:102B000018BF40F0010040F2FF72B2EB515F08BF06
:102B100040F00200012808BF052002B070474100C4
:102B2000080218BF04200A0E18BF40F001004FF041
:102B30007F4232EA010108BF40F00200012808BFCD
:102B4000052070476FEAD05010F0FF0F01D0012030
:102B5000704700207047000010B510EE104A4FF08B
:102B600019406849002200EB44002DED028B884299
:102B700057D8DFED650A14F0004F60EE200A14BF4D
:102B8000BEEE001AB6EE001A71EE200AFDEEE00A63
:102B900010EE900A00EE900AF8EEE00A9FED5B1A44
:102BA00000EEC10A9FED5A1A00EEC10ADFED590A84
:102BB0009FED591A00EE201ADFED580A40EE010A87
:102BC0009FED571A574B00F0030100EE201A21EE3B
:102BD000000A7B4403EB8103D3ED000A524B7B4494
:102BE00003EB810393ED001A504B41EE000A7B4446
:102BF00003EB8101801091ED000A70EE800AEABBC0
:102C000000EE100AB8EEC01ADFED491A9FED490A2E
:102C1000BDEC028B01EE210ABCEEC00A20EE200AB8
:102C200010BD4FF0FF40A0431BD04FF0CE40B0EBA3
:102C3000440F82BFB7EE000ABDEC028B10BD3E48C8
:102C4000B0EB440F28BF012293D20220FDF7DFFD35
:102C500014F0004F15D0BDEC028BBDE8104000F021
:102C6000CBBC14F5000F02BF9FED340ABDEC028B04
:102C700010BDBDEC028BBDE8104000E007E000F0A5
:102C8000A5BCBDEC028BBDE8104000F0ADBC00EB74
:102C9000D07359104FF07E5202EBC15100EE101A62
:102CA000A0EB630002EBC05060EE200A00EE100AB9
:102CB00020EE208A18EE100A88B118EE100AB0F142
:102CC000FF4F15D018EE100AFFF729FF042808BFA0
:102CD00000F092FCB0EE480ABDEC028B10BD022061
:102CE000FDF795FDBDEC028BBDE8104000F084BC03
:102CF0000220FDF78CFDBDEC028BBDE8104000F01A
:102D000073BC00000000501E3BAAB8400070313E6A
:102D1000F4FD053712BB2A3D12BB2A3EFFFFFF3EE2
:102D2000FFFF7F3F0A3602000E360200DE3502004A
:102D30000000004B00007E4E0000A0850000000057
:102D400010B52DED028BB0EE608AF0EE408A18EEE1
:102D5000101A18EE900A06F0D7FE00F07040B0F19D
:102D6000005F0CD018EE100A20F00040C0F1FF40C8
:102D7000C00F02BFB0EE480ABDEC028B10BDB0EE32
:102D8000680ABDEC028B10BD10B52DED028BB0EEC4
:102D9000608AF0EE408A18EE101A18EE900A06F0DB
:102DA000B3FE00F07040B0F1004F0CD018EE100AE6
:102DB00020F00040C0F1FF40C00F02BFB0EE480A53
:102DC000BDEC028B10BDB0EE680ABDEC028B10BDED
:102DD00030B540F2FF742DED048BF0EE608A18EEF2
:102DE000901A85B0B0EE408A9FED2B9B05468DED85
:102DF000008B34EA115147D053EC192B51EC180BCE
:102E000006F09EFC40D02A4651EC180B06F05AFF03
:102E100041EC180B18EE900A8DED008B34EA10503F
:102E20001CD053EC192B51EC180B06F089FC2BD15C
:102E30000220FDF7ECFC00F0AFFB10EE901A18EE4C
:102E4000900A8DED020B8DED008B61F31E00039057
:102E50009DED020B05B0BDEC048B30BD0220FDF7EB
:102E6000D6FC00F089FB10EE901A18EE900A8DED5A
:102E7000020B8DED008B61F31E0003909DED020BA4
:102E800005B0BDEC048B30BD05B0B0EE480AF0EEE5
:102E9000680ABDEC048B30BD00000000000000009B
:102EA00010B500212DED028BB0EE408A4FF480501A
:102EB0004FF00000044618EE100A06F09FFE08EEE0
:102EC000100A41F2100004EA00014FF00000B0EED9
:102ED000480ABDEC028B10BD10B510EE100A2DEDA6
:102EE000068BB7EE001A10EE901AB0EE418A00225F
:102EF000A0F5000CDFEDFE9A4FF00073BCF1FE4F21
:102F00004FF07F4403EB410C80F0B481BCF1804F63
:102F1000C0F02082F74901449FEDF73AB1F5005F18
:102F200040F2D48200F58021CB0C03F00F0101EEBA
:102F3000901AC3F307137F3BA0EBC350B8EEE12A0E
:102F400000EE100A1A44DFEDED2AF0EE411A42EECF
:102F5000221AF0EE613A70EE232A30EE632A12EE66
:102F6000900A00F500606FF30B0001EE900A73EE1B
:102F7000E13A33EE804AC1EE223A22EE230A10EE05
:102F8000100A00F500606FF30B0000EE100A00EE6F
:102F9000612A00EE442A62EE232A70EE221A21EE04
:102FA000A12ADFEDD73A02EE233A23EE023A20EED1
:102FB000012A22EE811A03EE211A32EE010A10EEE6
:102FC000100A00F500606FF30B0000EE100A72EEBD
:102FD000401A31EE812A9FEDCB1A60EE011A9FED67
:102FE000CA1A20EE011A9FEDC90A02EE001A31EE4C
:102FF000810A10EE100A00F500606FF30B0000EE7E
:10300000100AC34871EEC01A31EE812A784400EBF1
:10301000C10090ED003AD0ED011A100101EE100A46
:10302000F8EEC12A32EE211A31EE001A31EE031AFF
:1030300031EE221A11EE100A00F500606FF30B005A
:1030400009EE100A39EE621A31EE431A31EE400AE7
:1030500030EE610A32EE40AA10EE900A002100F52F
:1030600000606FF30B0008EE900A084670EEE8AAC5
:103070004FF0000029EE280A00F00C01F0EEC00A23
:1030800010EE900AB0F18B4F0DDD10EE900AB4EB0C
:10309000400F08D310EE100A4FF08B4262F31E006F
:1030A00008EE900A13E069EE2A0A38EEAA1A4AEEF0
:1030B000010A30EE201A11EE100A00F500606FF3DD
:1030C0000B0008EE900A30EE680A70EE209A0C2091
:1030D0004FF0000038EEA90AB5EEC00AF1EE10FA82
:1030E00034BFFEEE000AF6EE000A30EE800ABDEEB6
:1030F000C00A10EE100A011100EE101AF8EEC00A14
:1031000000EE100AB8EEC00A38EEC00A30EE290A06
:10311000DFED801A9FED801A00EE211ADFED7F1A95
:103120007F4900F00F0040EE011A21EE800A794439
:1031300001EB800191ED001A7A49794401EB80019D
:10314000D1ED001A784901EE801A794401EB800034
:10315000764990ED000A31EE001AB0EEE00A10EE6A
:10316000100A884215DA10EE100AB4EB400F10D3A3
:103170009FED6F0A30EE800ADFED6E0A20EE200A26
:1031800068EE010ABDEC068BBCEEC00A20EE200AF8
:1031900010BD10EE100A6849884243DA10EE100A9A
:1031A000B4EB400F3ED3BDEEE00A68EE010A10EE2C
:1031B000100A00EBD0725110C90501F17E5100EEEA
:1031C000101AA0EB6200C00560EE200A00F17E50EC
:1031D00000EE100A60EE808A18EE900AB4EB400F01
:1031E0000FD10220FDF713FB00F0FEF910EE101ACC
:1031F00018EE100ABDEC068B61F31E0000EE100AFB
:1032000010BD18EE900A400011D018EE900AFFF79A
:1032100086FC042808BF00F0EFF9B0EE680ABDECA8
:10322000068B10BDF5EEC00AF1EE10FA0FD20220A7
:10323000FDF7EDFA00F0E0F910EE101A18EE100AA2
:10324000BDEC068B61F31E0000EE100A10BD0220DB
:10325000FDF7DDFA00F0C8F910EE101AB0EE480ADA
:1032600010EE100ABDEC068B61F31E0000EE100A92
:1032700010BD00BFBCF1804F6CD300BF00F1FF4315
:10328000B3F1FE4F24D200BFB0EEC00A10EE100A18
:10329000C1F3C7537F2B0DDB972BBFF63BAEC3F1BA
:1032A00096034FF0010C0CFA03F3A3F1010C1CEA96
:1032B000010F08D00120FDF7AAFABDEC068BBDE88E
:1032C000104000F089B90B4218BFBFEE008A21E61A
:1032D00043001CBF4FF08073B3EB400F34D96FF045
:1032E0001A02DFED161A20EE210A10EE100A27E06E
:1032F00000000000001080C0ABAAAA3E0000803D84
:103300007EE24C3E00B03842D49AB8BB3BAA384269
:10331000F0310200FC596337C9FF753A1872313D2C
:103320008E310200C2310200323102000000FC4244
:103330000000FE420000004B000040430000004D32
:1033400010F0004FA0D1E5E5A0F50003B3F1FE4F6A
:1033500021D2DFE503EB4103B3F1007F11D3F5EE9A
:10336000C00AF1EE10FA05D1430018BFB4EB400FCC
:1033700076D883E701F0004141F0FC5100EE901A4D
:103380007CE7B3F1807F06D210EE903AA3F50003FC
:1033900000EE903A72E720F000426FF0FF4C604C74
:1033A00002EB0C03A34210D321F000439C44A4453C
:1033B0000BD3B0F17E5F18BF5FEA410C50D0B2F181
:1033C000FF4F98BFB3F1FF4F05D9BDEC068BBDE8A9
:1033D000104000F0FEB8B0F1FF4F0FD0C1F3C7525C
:1033E0007F2A09DB972A11DAC2F19602012303FA38
:1033F00002F2531E0B4205D0002208E011F0004FEC
:1034000055D128E00A4218BF012200D1022210F54E
:10341000000F13D028B3B0F1004F26D010F1814F28
:103420004FD04FF0FE42B2EB400F94BF012000207E
:10343000012202EBE171884239D10CE011F0004F1A
:1034400002D0012A38D032E0012A02BF9FED350AAE
:10345000BDEC068B10BD9FED340ABDEC068B10BD94
:103460002FE011F0004F0CD121E0B1F1FF4F1ED041
:1034700011F5000F05D011F0004F15D00AB1012A47
:1034800008D00220FDF7C3F9BDEC068BBDE8104063
:1034900000F092B80220FDF7BAF900F08DF8BDEC0B
:1034A000068BB1EE400A10BD0AB1012A04D0B0EE7D
:1034B000690ABDEC068B10BDBDEC068B9FED1B0AA7
:1034C00010BDBDEC068BB7EE000A10BD30EE410A10
:1034D000B5EE001A9FED172A00EE413AB6EE001A3B
:1034E00060EE001A00EE431A61EEC11A9FED101A49
:1034F00020EE011A20EE020A9FED0F2A01EE820A49
:1035000071EE001A11EE900A00F500606FF30B00E7
:1035100009EE100A31EE491A31EE00AA9CE50000CE
:10352000FFFF3F00000080FF0000807F0000008060
:1035300000B0B841D49A38BB3BAAB84100000000A3
:1035400000B583B09FED0A0B0A4601468DED000BD6
:103550006846FDF771FC9DED000B51EC100B06F079
:10356000A9F803B000EE100A00BD00000000000042
:1035700000000000000000009FED050B10B553ECAB
:10358000102B51EC100B06F053F941EC100B10BD51
:1035900000000000000000709FED050B10B553EC1B
:1035A000102B51EC100B06F043F941EC100B10BD41
:1035B0000000000000000010DFED030AB7EE001A63
:1035C00081EE200A704700000000000030EE000A83
:1035D000704730EE200A7047DFED020A80EEA00A45
:1035E00070470000000000009FED020A20EE000A74
:1035F00070470000000000709FED020A20EE000AF4
:10360000704700000000001030B504462DED048B1B
:1036100081B06A4691ED008B51EC180B03F0E8FB8A
:1036200000989FED239B7E300090002821DC53EC16
:10363000192B51EC180B06F083F81AD0002140F634
:1036400008004FF00000054651EC180B06F032F868
:1036500008EE100A40F6080005EA00014FF00000ED
:10366000B5EEC08AF1EE10FA04BF0220FDF7CFF8E4
:1036700017E00098FF280EDB0220FDF7C8F853EC96
:10368000192B51EC180B06F0D1F98CBF9FED0A8A6B
:103690009FED0A8A05E051EC180B06F00BF808EED6
:1036A000100A84ED008A01B0BDEC048B30BD00002F
:1036B0000000000000000000000080FF0000807F8C
:1036C00010B5044690ED000B0846FFF781FB84ED32
:1036D000000B10BD10B54169044688472069A0421F
:1036E00000D1002010BD00002DE9F04F002699B058
:1036F0000F4605463446B0464CE0A868C4EBC40308
:103700008946426802EB83020E92806810AA00EBA1
:10371000C40A2C480D9251F8082F006A120A62F36D
:103720001F200190D1F804B01C2105A8FCF7F0FF80
:10373000D9F81800006800F04DFB0590D9F8180082
:10374000806806905FEA0A0009D0C0F80080D9F8C6
:103750000010416029B1498819B1012102E04046B9
:1037600003E00021016001B900200790D9F818009A
:103770001C2205A9406809900198CDE90A0B0D9813
:10378000FCF794FF1C2210A90E98FCF78FFF761C03
:10379000B6B2641C0DB1288800E00020A04205D913
:1037A000686818B150F824100029A6D11EB1A86885
:1037B0004068386001E0C7F8008019B03046BDE8C5
:1037C000F08F0000F85D02080021C0F34342042A94
:1037D00001D0082A06D1C0F3C612C0F34150C2403E
:1037E000012191400846704730380A2801D2012053
:1037F000704700207047000070B505460C464888A9
:103800006988884202D9AAB1002070BD92B1002611
:103810000CE000BF6168C6EBC6006A6801EB80017E
:1038200002EB80001C22FCF741FF761C6088B0424E
:10383000F0D801E06068686060886880208828802F
:10384000012070BD30B500B3F9B1F2B15268E2B1F8
:103850000F4C1368A34203D00260012913D014E077
:103860000023121D07E000BF52F82350A54204D0E8
:1038700040F823505B1C8B42F6D38B4205D152F8A3
:103880002300A04201D1012030BD002030BD000046
:10389000DECAFAA170B50D46060014461AD0CCB1A6
:1038A000104600F03FFB00B16088A84212D100230F
:1038B000042109E0C3EBC302606801EB8202805877
:1038C00020B146F823005B1CAB42F3D3AB4201D1DD
:1038D000012070BD002070BD0349884201D1012044
:1038E0007047002070470000DECAFAA12DE9FE4FA4
:1038F00092468946040003D0208E20B1656B03E018
:103900000020BDE8FE8F0025002060832083207CFE
:10391000C043800702D030221121DCE0B9F1000F52
:1039200061D0D5B32888C0B3D9F818000026D0F8E4
:10393000008056E0A868006800EB0610019052D0A5
:1039400058B3C6EBC600029009EB8000012100903D
:1039500000F0F2FADBF81830596888421AD800985B
:10396000DBF80C208069D768D0F80CC0674511D10E
:103970009768D0F808C067450CD152684068824209
:1039800008D1186800F016FA0746584603F078FA8E
:10399000874203D2182212219DE024E0DBF81800B0
:1039A000006800F017FA029920F07E4259F82100D1
:1039B00020F07E40824201D01922ECE70098406856
:1039C00088B100988069006878B14146404500D2CE
:1039D00008468046DDE900105A4600F08FF8761C54
:1039E0002DB1288804E01722D5E72122D3E7002053
:1039F000B04206D9686820B150F826B0BBF1000F7C
:103A000098D1BAF1000F74D0208E012806D9656BC9
:103A10000C3503D0288808B1002658E0182259E058
:103A2000A868006800EB061B3BD0BBF1000F38D044
:103A3000C6EBC60001900AEB80000121009000F067
:103A40007BFAD9F8183059688842E7D80098D9F835
:103A50000C208069D768D0F80CC06745DED1976824
:103A6000D0F808C06745D9D1526840688242D5D1A4
:103A7000186800F09FF90746484603F001FA8742AC
:103A8000CCD3D9F81800006800F0A4F920F07E42E9
:103A900001985AF8200020F07E40824203D019227B
:103AA00018E0172216E0009840680028F9D0009826
:103AB0008069006868B14146404500D208468046AA
:103AC0004A465846009900F019F8761C3DB12888FE
:103AD00006E021221321204600F094FD10E700208B
:103AE000B04206D9686820B150F82690B9F1000FAD
:103AF00096D1A4F818804FF0010002E770B5044693
:103B00000E461546104603F0BBF90146A060B069A9
:103B100000684843E060716861607268104420602A
:103B2000A8690268920007D4D0E90223D21A11448E
:103B30008160A9696068C86070BD70B506460025DF
:103B400021E0B068006800EB051488690268920003
:103B500005D58168A268606803F0D6FE08E0D0E968
:103B60000223D21A63681A44826089696068C86057
:103B7000D4E90101084460602168884201D3E0680B
:103B8000081A6D1C60600EB1308800E00020A84269
:103B900006D97068002803D050F825100029D0D12C
:103BA00070BD2DE9F0410646002529E0B168836922
:103BB000096801EB051419688900D4E901120DD5D3
:103BC000986803F0A1FED4E901010844606021680F
:103BD000884201D3E068081A606010E00A4462601D
:103BE00021688A4201D3E2688A1A62608169D1E958
:103BF0000237DB1B1A448A6080696168C1606D1CF2
:103C00000EB1308800E00020A84206D97068002874
:103C100003D050F825000028C8D1BDE8F0817047D6
:103C20002DE9F04F584B93B01B680A9354684369D1
:103C3000246853F82430029354684369646853F845
:103C40002430039354684369A46853F824300493E0
:103C500054684369E46853F82430059304690523E4
:103C6000B3EB142F0CD8156844690423B3EB152F5C
:103C700002D253681B6900E0012354F8233000E0AE
:103C80000023069304690623B3EB142F0CD11568A7
:103C900044690523B3EB152F02D25268526900E044
:103CA000012254F8222000E000220792806902AD30
:103CB00001F10804826808920088C0F3C610C008A9
:103CC00001908869D0F808B0002055E000204CE051
:103CD00000203CE000272DE0002626E0E868AA68E6
:103CE00000FB0AF009FB02030A980521B1EB102F33
:103CF00001D8286900E000200A99062200FB08F09C
:103D0000B2EB112F01D1696900E0002107FB01002E
:103D10006968184406FB01000899019A084459464D
:103D200003F0F2FD0199761C8B4460684068B04254
:103D3000D4D87F1C21680520B0EB112F02D2616816
:103D4000496900E00121B942C6D808F10100804666
:103D500021680420B0EB112F02D26068006900E0F6
:103D600001204045B6D809F10100814660688168AC
:103D70004945ADD80AF1010082466068C1685145E5
:103D8000A4D813B0BDE8F08F505F020870B579B1C8
:103D9000C0F3C6156943C91D21F00704C0F34151A2
:103DA000CC40FFF711FD00FB0540C01DC00870BDF1
:103DB000002070BD59B1C0F3C6125143C91D21F096
:103DC0000701C0F34150C140C91DC8087047002019
:103DD0007047000030B54021C0F34342022A19D099
:103DE0003A4A20F07E439C1A4D01934263D028DC6E
:103DF000374AA3EB020493425DD018DC402B5BD022
:103E0000403BB3F5802350D0802B3DD0B3F5806F7D
:103E100052D134E0C0F3C051C905C0F3C61241EA23
:103E2000C21100F07F02114341F4802144E0A4F567
:103E30004074F93C26D00F2C3AD0AC423CD12549F5
:103E40003AE0254BE21A9C4229D00CDC234AA21806
:103E500013D0B2F5F83F1FD0214BD2181AD0B2F5CB
:103E6000607F29D112E0A2F54072F93A10D00F2AF2
:103E700018D0AA4220D11B491EE01B491CE014495E
:103E8000C91F19E0194917E0194915E0194913E04C
:103E9000194911E019490FE0184980390CE015491A
:103EA000C91D09E014490F3106E01149803903E0CA
:103EB0000E490F3100E0114600F080420A4300F045
:103EC0000051114300F00060084330BD400406007B
:103ED000470404004010040007007E0000F483FF44
:103EE000800FFEFF40108400401082004008040054
:103EF000C00004004004840040088400C000840026
:103F000070B514460D46064600F00CF840B17068D6
:103F1000C5EBC50110EB810002D04460012070BDEB
:103F2000002070BD28B1416819B1408808B1012056
:103F3000704700207047000010B502002AD0164BD1
:103F40001068B3EBC01F03D0144BB3EBC01F01D1FB
:103F5000012000E0002008429069406802D01F3034
:103F600020F01F005369D9B2012900D000211C0A9A
:103F700007E0012907D0936953F821305843491CC1
:103F80001AB1234602E00123F8E700238B42F0DC5C
:103F9000002800DC002010BD00600042006000022C
:103FA00008B509A10968009148B101789DF8002081
:103FB000914204D104226946FCF707FB08B10020B6
:103FC00008BD012008BD0000038404841CB5002244
:103FD0000523CDE900320123014A00F0D9F91CBDC7
:103FE000740A00202DE9F04190B007460E461546B0
:103FF00000213846FFF7EAFF0F9010F0FF0F0AD1BB
:1040000001A800F033F818B100240DF110080DE0FC
:10401000386800F041F810B0BDE8F08156F824206F
:1040200021464046FFF76CFF641CA4B21EB1BDF8E8
:104030001200A042F2D8002401AE07E055F8242077
:104040002146301DFFF75CFF641CA4B21DB1BDF812
:104050000A00A042F2D801A9386800F01FF818B988
:10406000386800F019F80F900F98D4E71FB50028B2
:104070000ED00849D1E90023CDE90223CA68896836
:10408000CDE9001202AA694600F016F904B010BD8D
:104090000020FBE7F0A6000800F0C8B92DE9F041C8
:1040A00006460F463946304600F0CEF9044684B144
:1040B0003946204600F016FC05463946204600F0F9
:1040C00085FB00EA0504304600F04AFA2040BDE8CE
:1040D000F0810020FBE70000002802D10248034ADB
:1040E000026000F033B90000740A00200001C0A192
:1040F000002802D10248034A026000F089BA000099
:10410000740A00200001C0A100F052BA2DE9F0416C
:10411000066C816B04460025C163CEB1D9B1012084
:10412000626CB0470CE00220626CB047E06BFFF7B6
:10413000D1FA07460320626CE16BB0476D1CE76360
:10414000E16B0029EFD106E0FFF7C4FA6D1CE063D4
:10415000E06B0028F8D12846BDE8F0810346002036
:10416000996B002908D0CB600A69401C8A4203D0B1
:10417000002A01D01146F6E770472DE9F041846B23
:10418000002594B1012600272079C00707D0216AB5
:10419000204611B18847304600E038460544206982
:1041A000A04202D008B10446EEE72846BDE8F081FF
:1041B000F0B50024059F0460446084600D692646C4
:1041C0006D4221E0002D06DAD0F800C00CF1010CA0
:1041D000C0F800C014E0D2F808C0D7F808E0ACEB93
:1041E000050CF44506DAD0F808C00CF1010CC0F853
:1041F00008C005E0D0F804C00CF1010CC0F804C000
:10420000D1F808C0761C6544D3F808C0B445D9DCA1
:104210000568C560456805618568C0E90554C461E5
:1042200004624C696442002515E0002C03DA8669BB
:10423000761C86610CE05668D7F804C0361B6645CC
:1042400003DA066A761C066202E0C669761CC6615D
:10425000CE686D1C34445E68AE42E6DCF0BDD0E949
:104260000621012322B149B18384521E826109E0F3
:1042700021B100228284491EC16103E08384016A66
:10428000491E0162C1680160016941604169816044
:1042900070470168012219B1C284491E016070474C
:1042A000416821B1828CC284491E41607047C2843A
:1042B0008168491E8160704710B570B169B162B103
:1042C000074C0460D1E90041C0E90141D2E9001284
:1042D000C0E903120123184610BD002010BD0000E4
:1042E000DECAFAA1016810B1024A8A4300D0002058
:1042F000704700000001C0A130B44AB140B139B1EB
:10430000074C1368A34206D130BC0C32FFF7C2BA87
:1043100030BC0020704730BC1C32FFF793BA00005D
:10432000DECAFAA130B44AB140B139B1064C1368C3
:10433000A34206D130BC121DFFF7ACBA30BC00203E
:10434000704730BCFFF77EBADECAFAA1F8B50E4658
:10435000FFF7C8FF04000AD000270097208E00B1A5
:10436000606B6946FFF7C0F9050006D00BE010222C
:10437000114600F047F90020F8BD1822112120460F
:1043800000F040F9009706B135800098F8BD0000B4
:104390002DE9F04F89B00500DDE912104FF0000A59
:1043A000564663F30706CDE9011361F30F261D4F4F
:1043B0009146544660F31746834618D0C5F80090DE
:1043C00000F093F9B8B1B846BF8AC6F30721F0B23E
:1043D000002200F053F90646C7F30721F8B2002285
:1043E00000F04CF9864208D0D8F804400EE0F86995
:1043F00009B0BDE8F08F3C6808E00BA000680090B1
:104400006846FFF7CDFD18B9D8F80840C5F800A0F8
:10441000DDE901105A4600F031F9C9F808002046DC
:10442000E6E70000F85D02080384048410B5FFF796
:1044300059FF20B1BDE810400C3000F050B90148E0
:10444000806910BDF85D02082DE9F04F91B00C466F
:10445000FFF748FF050013D0B4B13DA12068FFF776
:104460003BFA06004FF0000B11D020680190D4E910
:104470000301CDE90401D4E90101CDE9020143E0E2
:10448000002011B0BDE8F08F112210215CE0012165
:104490002046D4F804A0FFF74FFD804604F11C002D
:1044A000D4F8209001211090FFF746FD0746142212
:1044B000294907A8FCF7FAF80120B8F1000F02D04B
:1044C000ADF8220002E0ADF822B0002409941FB13B
:1044D000ADF82A00109802E0ADF82AB000200B9049
:1044E000B9F1000F02D10FB1132206E0BAF1000FAB
:1044F00005D1B8F1000F02D01222102123E01422BE
:1045000007A901A8FCF7D2F814492868884212D1FB
:1045100086F00102144602A905F12000FFF76CF9AC
:1045200068B1224604A905F12800FFF765F940B1FA
:104530002846FFF713FE032028612846A1E7122230
:1045400000E013221621284600F05CF898E70000EE
:10455000696E6974000000004C5E02080001C0A191
:1045600070B5FFF7BFFE002807D0017C890705D48E
:104570001022112100F046F8002070BD0B4A01689E
:10458000914211D10546FFF7F8FD286C60B1AC6B84
:1045900054B1D5E910322146002098472069A04245
:1045A00002D008B10446F4E7012070BD0001C0A1AB
:1045B00070B513460D46FFF795FE04461A46294688
:1045C000FFF794F900281CD0208E08B1656B00E03D
:1045D0000025012802D9666B0C360DE000260BE0A1
:1045E0002846FFF7AAFA2046FFF790FD3046FFF76E
:1045F000D8FA608B401C6083608B218B8842EFD39C
:1046000080B270BD002802D00C3000F07FB8704737
:10461000F8B50E46FFF766FE040007D000270097A6
:10462000208E012808D9606B0C3006E0102211465C
:10463000FFF7E8FF0020F8BD00206946FFF754F8B7
:10464000050005D1182211212046FFF7DBFF009756
:1046500006B135800098F8BD4168D1E902014843B0
:10466000704702460068010A012004E05368491EB1
:1046700053F8213058430029F8D17047000640EA2A
:10468000014040EA02207047F0B500241FE000BF5F
:1046900000EB840595ED001A61EE001A81EEA01A78
:1046A00011EE105AC5F3C756C6F17E07C5F31606BC
:1046B00006F50006002D00DA76421F2F01DD0026E8
:1046C0003746F50123F8147042F82450641C8C42DC
:1046D000DEDBF0BD10B51EC980E81E0010BD002253
:1046E000016802700260084670470120704710B1EF
:1046F0008269002A00D10846704710B1806900B174
:10470000014609B18868704700207047037813F0AC
:10471000FF0F01D0002070470170016862F31F2174
:1047200001600120704710B50A6802604A68426063
:104730008A6982618A68130A826863F31F22826031
:10474000002206E0CB68C46853F8223044F82230D7
:10475000521C8368B2EB132FF4D30A69130A02695F
:1047600063F31F220261002206E04B69446953F89B
:10477000223044F82230521C0369B2EB132FF4D3D9
:1047800010BD000070B50024084D0CE00B5D5840D2
:10479000002300F0010676422E4086EA50005B1CA2
:1047A000082BF6DB641C9442F0D370BD2083B8ED77
:1047B00010B56FF00400FEF769F803481521017089
:1047C00045F20821416010BD2400002010B50446C8
:1047D0000A4601214248FFF78FFD002878D0404863
:1047E0003F49083100688860C8603D4A42F6E06190
:1047F000183201449160D16042F6386110320144B0
:104800009160D16002F5A8718860C86041F690019E
:1048100002F5B07201449160D16042F61861A2F5D0
:10482000A87201449160D16002F110018860C860F3
:1048300002F5B07200F500519160D160103200F5C0
:104840006C519160D160A2F5A87280319160D16005
:10485000234B00F5DA5268339A60DA6003F5A872E8
:104860009160D16002F110018860C860A2F5A07269
:1048700000F5D6519160D160103200F5675191601A
:10488000D16002F5A8718860C86002F5B07200F5C9
:1048900004519160D160A2F5A87200F508519160B1
:1048A000D16002F110018860C86002F5B07200F1B9
:1048B00080019160D160A2F5A07200F5DA7191607B
:1048C000D16002F110018860C860012010BDFFE7CF
:1048D000132230212046FFF795FE0020F6E7000066
:1048E0006C08002010B504460A4601213548FFF740
:1048F00019FD00285ED03349D431086840F080406B
:104900000860304800688860C86001F110021168D2
:1049100041F08041116000F5B4519160D1601032D6
:10492000116841F08041116000F5B8519160D1608B
:104930001032116841F08041116000F59E41916094
:10494000D1601032116841F08041116000F5A04142
:104950009160D1601032116841F08041116000F522
:1049600070419160D1601032116841F08041116056
:1049700000F572419160D1601032116841F08041C0
:10498000116000F5D9319160D1601032116841F0A9
:104990008041116000F5DA319160D16002F11001BF
:1049A0000A6842F080420A60074A10448860C86082
:1049B000012010BD122230212046FFF723FE0020E7
:1049C00010BD00007008002080B6010010B5A2B034
:1049D00004460020E062009105A2802102A8236A1B
:1049E000FBF780FC626902A8E169904722B010BD24
:1049F0007B2274797065223A226572726F72222C62
:104A000022736571223A256C752C22636F646522CE
:104A10003A222573227D0D0A000000002DE9F04F97
:104A20002DED028BADF57F7D04465D915DA804F010
:104A300065FC06464FF00009CDF86091002536B1BF
:104A4000F6A13046FBF78CFE08B95D9800B3002E46
:104A500054D05CA95DA804F0D3FC00284ED0F0A18E
:104A60003046FBF77DFE42F6E0674FF00108002874
:104A70004BD0216A5C98814270D02062E9A1204627
:104A8000FFF7A4FF0DF57F7DBDEC028BBDE8F08F35
:104A9000E568286905F000F806460F46E86804F066
:104AA000FBFF80468946A86804F0F6FF82468B46E5
:104AB000686804F0F1FFCDE90C01286804F0ECFF10
:104AC000CDE906ABCDE90889CDE90A67DDE90C56E9
:104AD00002AA63C220690090206808B1D4A300E054
:104AE000D5A3D74A4FF420715EA8FBF7FBFB6269A0
:104AF0005EA8E16990470DF57F7DC5E7D1A120460D
:104B0000FFF764FF0DF57F7DBEE75C982062C4F877
:104B10002C90206850B16068FEF714F830B194ED25
:104B2000010AB5EEC00AF1EE10FA06D8C7A1204678
:104B3000FFF74CFF0DF57F7DA6E75AA95DA804F0AD
:104B40005FFC20B15A98B84201D15D9838B1C3A139
:104B50002046FFF73BFF0DF57F7D95E714E0C4F895
:104B600024904FF0FF30A062C4F82C80BFA24FF415
:104B700020715EA85C9BFBF7B5FB62695EA8E169EA
:104B800090470DF57F7D7FE7E06A88B1BFA1304691
:104B9000FBF7E6FD98B1BEA13046FBF7E1FD00282A
:104BA0007ED0BCA12046FFF711FF0DF57F7D6BE79E
:104BB000BAA12046FFF70AFF0DF57F7D64E75BA9E8
:104BC0005DA804F01DFC78B15AA95DA804F018FC9A
:104BD00050B1616A5B98814206D15A9820B1402851
:104BE00002D8791A814206D2AFA12046FFF7EEFE25
:104BF0000DF57F7D48E7002518AF1DE05DA804F0A6
:104C00007DFB60B1017851B10DA9FEF799FC07EB6E
:104C1000850080ED000A0D980078C8B906E0A6A1CD
:104C20002046FFF7D3FE0DF57F7D2DE710EE100A2D
:104C3000FDF788FF60B16D1C5A988542DED35D9800
:104C400068B19FA12046FFF7C1FE0DF57F7D1BE7F0
:104C500099A12046FFF7BAFE0DF57F7D14E70025E8
:104C60002AE007EB850694ED011AD6ED000A80EEE6
:104C7000810AFEF715F9D4ED020AF8EEE00A70EEAB
:104C8000200A9FED930AFEF75BF8F0EE400A9FEDD5
:104C9000910AFEF779F8BDEEC00A10EE100A00E0A6
:104CA00020E05B9A21682A44885431460422A06A95
:104CB000FFF768FDA0626D1C5A988542D1D3606AE7
:104CC0005A9908446062009083A24FF420715EA854
:104CD0005C9BFBF707FB62695EA8E16990470DF5F5
:104CE0007F7DD1E659A95DA804F08AFB48B15D98A3
:104CF00038B9606AB84204D1A06A5999C043884261
:104D000006D07FA12046FFF761FE0DF57F7DBBE653
:104D1000C4F82C90D4E9063258A913A89847D0B10A
:104D200000260DF14C09B7EE008A09EB86073868BA
:104D3000FDF708FFB0B197ED000AB5EEC00AF1EE3D
:104D400010FA16DBB1EE400AFDF706FF70EE080A16
:104D500088EE200A19E06FA12046FFF737FE0DF517
:104D60007F7D91E66DA12046FFF730FE0DF57F7D3A
:104D70008AE6FDF7F1FEF0EE408A97ED000AFDF7B6
:104D8000EBFE70EE080A88EEA00A0EA800EB860083
:104D900080ED000AE06800EB8600D0ED000AF4EE3A
:104DA000C00AF1EE10FA02D808FA06F00543761CA4
:104DB000052EBAD3129804F06FFE06460F461198DE
:104DC00004F06AFE82468B46109804F065FE804629
:104DD00089460F9804F060FECDE90C010E9804F0AE
:104DE0005BFE0A46014604AB5898A3E8000FCDE9E4
:104DF0000A50CDE90867DDE90C568DE866004C4A9B
:104E00004FF420715EA85C9BFBF76CFA62695EA8A8
:104E1000E16990470DF57F7D36E6000024500000E3
:104E20002442000073657175656E636500000000C3
:104E3000747275650000000066616C7365000000A7
:104E400018640208666F726D6174000061695F6EBC
:104E50006F745F72656164790000000073616D704A
:104E60006C655F636F756E74000000007B2274795F
:104E70007065223A22626567696E222C2273657121
:104E8000223A256C757D0D0A0000000024440000C4
:104E900024520000636F6D6D616E64006E6F5F740D
:104EA00072616E73666572006F66667365745F6FBC
:104EB000725F636F756E7400666C6F6174000000E2
:104EC00065787472615F76616C75657300000000CF
:104ED000000000C30000FE427B2274797065223A14
:104EE0002261636B222C22736571223A256C752C2A
:104EF000226E657874223A256C757D0D0A000000DB
:104F00006372635F6F725F696E636F6D706C6574FF
:104F10006500000061695F72756E00006E6F6E66FD
:104F2000696E6974655F6F75747075740000000058
:104F3000D06402080248C168491CC1607047000083
:104F40002C0000202DE9F04F816989B002460B88C2
:104F50000BB1486800E00020406828B10BB14868F8
:104F600000E0002040680068012B02D94C680C3436
:104F700000E00024646844B1012B02D949680C3177
:104F800000E000214968096800E00021C368CC689E
:104F9000978BB3F80CB0B4F808C0B4F80C80148D3B
:104FA000B3F808A0168C958C9B88126B1FFA83F9B6
:104FB0001FFA88F813889288CDE907811FFA8CFCC4
:104FC000A4B2CDE9054CA9B29BB2CDE90331B9B287
:104FD000009192B2B4B2CDE901421FFA8BF21FFAEE
:104FE0008AF14B4602F09DF909B0BDE8F08F000050
:104FF0002DE9F04F04462DED028BD3B08069018876
:1050000009B1426800E0002252682AB109B1426841
:1050100000E00022526812680692012902D9426813
:105020000C3200E0002252683AB1012902D94268EC
:105030000C3200E00022526812684892022902D91C
:105040004268183200E0002252683AB1022902D9BF
:105050004268183200E00022526812680592022964
:105060000BD9426812F1180F07D032F8183F012B04
:1050700003D9526812B1526800E000220492032959
:1050800002D94268243200E0002252683AB1032972
:1050900002D94268243200E0002252681268499224
:1050A000032902D94268243200E00022526842B14A
:1050B000032902D94268243200E000225268556870
:1050C00000E00025626A92B11992032902D9426870
:1050D000243200E0002252683AB1032902D9426822
:1050E000243200E0002252689268189202E0FE4AE0
:1050F000CDE91852069A0229D26893889BB224936C
:10510000EB689B889BB21A93489BDB68DE68299604
:105110009B684D93D2F80C9092681F92228D92B2A8
:105120002892A28D92B21392E26B13881FFA83F831
:1051300093889EB2138992891FFA83FA97B2059ACF
:10514000D2689368209352682792626C4C92E26C0A
:105150004B92226D1E92A26D1368269352684A925A
:1051600002D94268183200E00022526862B1022976
:1051700002D94068183000E000204068806818B10B
:105180000021FFF7B4FA03E00020216AFFF7B5FA27
:10519000159027991F981C22401A81192898394484
:1051A000B1FBF0F0A06C14902098A9EB00014144F1
:1051B00013985144B1FBF0F000F1010AE06D5090FA
:1051C0001898AF69C9498669489880694E902EA899
:1051D000FBF76CFAC5480DF5807B2038B0E80E105F
:1051E0008BE80E1040A931910FC80DF5887B8BE834
:1051F0000F0044A833902EA81899FFF794FA31466F
:1052000035A8FFF767FA35A83490E86800218B4687
:1052100080682B904998806980682C9020982A900B
:1052200009EB0800CDE91C0826982D9100B22390C7
:1052300081460698059A01682868126851B14B6842
:1052400043B1B1F802C0BCF1000F03D01B68D3ED2D
:10525000008A01E0F7EE008A58B1D0F804C0BCF132
:10526000000F06D0438823B1DCF8003093ED008AAC
:1052700001E0B7EE008A069B94F84180D3F818C08D
:10528000059B9B69CDF84481DCF808809B683E93C0
:10529000049B9B699B683D931AB152680AB11268DE
:1052A00000E000223C9239B14A682AB1498819B11C
:1052B000516891F9001000E000213B9138B141683C
:1052C00029B1408818B1486890F9000000E000203A
:1052D0003A9001E1BAF1000F6EDD002026990090AE
:1052E000894504D1BBF1000F01D1012000904998FC
:1052F000806903C8FEF74AFD2C9A009BCDE9100295
:105300000121CDE90E13BA682B98519BCDE90A32E1
:1053100080B20DF1E80CCDE90C019CE80F0006937A
:105320000992CDE907102098139983B2DDE927028D
:1053300080B2CDE90421CDE902031A993E98CDE966
:1053400000012A98F0EE480A82B21F98B0EE680A6F
:1053500081B24046249B00F043FC13991C9888427C
:1053600001D0401A00E000202A991C90814200D20E
:1053700008462A901D98B0B31399401A002809D501
:105380001F9A24991D9B01FB02F1139AA2EB0303C0
:1053900001FB038801DC4FF0000080B21D901A9AD7
:1053A0002B98294602FB00F2DDE9180C159BE0471B
:1053B00009F101000FFA80F9AAF101005FEA000A81
:1053C0002FD52B9A1A98B168504300FB1910F26838
:1053D000824201D973681844824216D2149A12B2DA
:1053E00091450DD111E0FFE71F9924984843139987
:1053F00000FB0188D3E700BF10F8012B01F8012B57
:105400007368F2681A448242F6D81498A0EB090136
:105410002D98084400B22D901E9909EB01000FFA57
:1054200080F9149909B289453BDB1E991E9BA9EBB3
:1054300001000FFA80F94D989BB24899012280B281
:105440000593CDE906024B98089182B223984A99B8
:1054500080B289B2149BCDE902109BB201934C98A3
:10546000049280B200902D991498DDF840C1401A42
:1054700082B22B980BF1010B81B22EA81A9BE04748
:105480004E98816848984069C06801444E98816090
:105490001E98239900B2081A002800DC002000B2F0
:1054A00023906969B868C9680844B860606A28B11F
:1054B0001898B1684069C0680844B060284601F097
:1054C000DFFC0146F868BA680144914204D8B8602C
:1054D000606A08B1F068B06029988345FFF4FAAEBD
:1054E000F868B860F06803E07D6E0008BC5E0208F2
:1054F000B0604E984E99C068886053B0BDEC028B86
:10550000BDE8F08F2DE9F04F04462DED028BD5B0AC
:105510008069018809B1426800E0002252682AB11E
:1055200009B1426800E0002252681268069201291F
:1055300002D942680C3200E0002252683AB10129D7
:1055400002D942680C3200E0002252681268479289
:10555000022902D94268183200E0002252683AB1AA
:10556000022902D94268183200E00022526812680B
:10557000059202290BD9426812F1180F07D032F8B0
:10558000183F012B03D9526812B1526800E0002283
:105590000492032902D94268243200E000225268B2
:1055A0003AB1032902D94268243200E0002252684D
:1055B00012684892032902D94268243200E000228E
:1055C000526842B1032902D94268243200E0002225
:1055D0005268556800E00025626A92B12092032962
:1055E00002D94268243200E0002252683AB103290D
:1055F00002D94268243200E00022526892681F9269
:1056000002E0FE4ACDE91F52069A0229D268938829
:105610009BB21A93EB689B889BB21793479BDB68FE
:10562000DE6838969B684C93D2F80C909268229270
:10563000228D92B22892A28D92B21492E26B1388BC
:105640001FFA83F893889BB22793138992899FB29C
:1056500096B2059AD2689368199352682492626C44
:105660004B92E26C4A92226D2192A26D13682693AE
:105670005268499202D94268183200E0002252680A
:1056800062B1022902D94068183000E00020406869
:10569000806818B10021FFF72AF803E00020216A92
:1056A000FFF72BF81C90249922981C22411A279866
:1056B000084481192898B1FBF0F01999A06C169054
:1056C000A9EB0101414414983944B1FBF0F000F119
:1056D000010AE06D53901F98AF69C94986694798E0
:1056E00080694D9030A8FAF7E1FFC5480DF1F80B3D
:1056F0002038B0E80E108BE80E103EA933910FC889
:105700000DF5847B8BE80F0042A8359030A81F99D7
:10571000FFF709F831464FA8FEF7DCFF4FA8369097
:10572000E8680021059A8068259048988B46806932
:10573000806839901998299009EB080018902698EC
:10574000CDF8548000B2CDE92E108146069812683B
:105750000168286851B14B6843B1B1F802C0BCF18F
:10576000000F03D01B6893ED008A01E0B7EE008ABA
:1057700050B1436843B1B0F802C0BCF1000F03D090
:105780001B68D3ED008A01E0F7EE008A069B94F8CF
:105790004180D3F818C0059B9B69CDF8F080DCF8F8
:1057A00008809B683B93049B9B699B682D931AB16F
:1057B00052680AB1126800E000223A9239B14A6890
:1057C0002AB1498819B1516891F9001000E000210F
:1057D0002C9138B1416829B1408818B1486890F9D6
:1057E000000000E000202B9005E100BFBAF1000F9F
:1057F00072DD002026990090894504D1BBF1000F8D
:1058000001D1012000904898806903C8FEF7BEFAD4
:105810003999009A0123CDE91101CDE90F3225987C
:10582000BA6881B23A9B3C98CDE90C020B930DF11A
:10583000AC0C0E919CE80700159BCDE90910CDE951
:105840000732DDE92702199B1499CDE905109BB2B7
:10585000CDE9033224983B9A80B217990092CDE9A2
:1058600001102998F0EE680A82B22298B0EE480A38
:1058700081B240461A9B00F05FFA1499189888424A
:1058800001D0401A00E0002029991890814200D2EE
:10589000084629901598B0B31499401A002809D5E4
:1058A000229A1A9901FB02F1DDE91423A2EB03030A
:1058B00001FB038801DC4FF0000080B21590179ABD
:1058C0002598294602FB00F2DDE91F0C1C9BE047EE
:1058D00009F101000FFA80F9AAF101005FEA000A5C
:1058E0002ED5259A1798B168504300FB1910F2681D
:1058F000824201D973681844824216D2169A12B2B3
:1059000091450DD111E0FFE722991A98149A484366
:1059100000FB0288D3E700BF10F8012B01F8012B30
:105920007368F2681A448242F6D816992E98A1EB51
:105930000901084400B22E90219848440FFA80F9DA
:10594000169909B289453BDB2198219AA9EB000001
:105950000FFA80F94C9892B280B24799CDE90520B0
:105960000123CDE907312F994A988AB2499980B22B
:105970008BB21699CDE9032089B2CDE901134B987A
:105980002E9980B200901698DDF84CC1401A82B270
:1059900025980BF1010B81B230A8179BE0474D9879
:1059A000816847984069C06801444D988160219999
:1059B0002F9809B2401A002800DC002000B22F9076
:1059C0006969B868C9680844B860606A28B11F98F6
:1059D000B1684069C0680844B060284601F050FAD8
:1059E0000146F868BA680144914204D8B860606A18
:1059F00008B1F068B06038998B4503E07D6E00080F
:105A0000345F0208FFF4F2AEF868B860F068B06086
:105A10004D984D99C068886055B0BDEC028BBDE8CB
:105A2000F08F2DE9F04F816987B0088808B14A6886
:105A300000E00022526832B108B14A6800E000225A
:105A40005268156800E00025012802D94A680C3226
:105A500000E00022526842B1012802D94A680C32A3
:105A600000E000225268146800E00024022802D9F5
:105A70004A68183200E00022526842B1022802D976
:105A80004A68183200E000225268166800E00026DA
:105A900002280BD94A6812F1180F07D032F8183FC4
:105AA000012B03D9526812B1526800E000229046DF
:105AB000032802D94A68243200E00022526842B129
:105AC000032802D94868243000E0002040680768B5
:105AD00000E00027E86880881FFA80FBE068808883
